{
  "_format": "hh-sol-artifact-1",
  "contractName": "NFT",
  "sourceName": "contracts/NFT.sol",
  "abi": [
    {
      "inputs": [],
      "stateMutability": "nonpayable",
      "type": "constructor"
    },
    {
      "anonymous": false,
      "inputs": [
        {
          "indexed": true,
          "internalType": "address",
          "name": "owner",
          "type": "address"
        },
        {
          "indexed": true,
          "internalType": "address",
          "name": "approved",
          "type": "address"
        },
        {
          "indexed": true,
          "internalType": "uint256",
          "name": "tokenId",
          "type": "uint256"
        }
      ],
      "name": "Approval",
      "type": "event"
    },
    {
      "anonymous": false,
      "inputs": [
        {
          "indexed": true,
          "internalType": "address",
          "name": "owner",
          "type": "address"
        },
        {
          "indexed": true,
          "internalType": "address",
          "name": "operator",
          "type": "address"
        },
        {
          "indexed": false,
          "internalType": "bool",
          "name": "approved",
          "type": "bool"
        }
      ],
      "name": "ApprovalForAll",
      "type": "event"
    },
    {
      "anonymous": false,
      "inputs": [
        {
          "indexed": true,
          "internalType": "address",
          "name": "from",
          "type": "address"
        },
        {
          "indexed": true,
          "internalType": "address",
          "name": "to",
          "type": "address"
        },
        {
          "indexed": true,
          "internalType": "uint256",
          "name": "tokenId",
          "type": "uint256"
        }
      ],
      "name": "Transfer",
      "type": "event"
    },
    {
      "inputs": [
        {
          "internalType": "address",
          "name": "to",
          "type": "address"
        },
        {
          "internalType": "uint256",
          "name": "tokenId",
          "type": "uint256"
        }
      ],
      "name": "approve",
      "outputs": [],
      "stateMutability": "nonpayable",
      "type": "function"
    },
    {
      "inputs": [
        {
          "internalType": "address",
          "name": "owner",
          "type": "address"
        }
      ],
      "name": "balanceOf",
      "outputs": [
        {
          "internalType": "uint256",
          "name": "",
          "type": "uint256"
        }
      ],
      "stateMutability": "view",
      "type": "function"
    },
    {
      "inputs": [
        {
          "internalType": "string",
          "name": "tokenURI",
          "type": "string"
        }
      ],
      "name": "createToken",
      "outputs": [
        {
          "internalType": "uint256",
          "name": "",
          "type": "uint256"
        }
      ],
      "stateMutability": "nonpayable",
      "type": "function"
    },
    {
      "inputs": [
        {
          "internalType": "uint256",
          "name": "tokenId",
          "type": "uint256"
        }
      ],
      "name": "getApproved",
      "outputs": [
        {
          "internalType": "address",
          "name": "",
          "type": "address"
        }
      ],
      "stateMutability": "view",
      "type": "function"
    },
    {
      "inputs": [
        {
          "internalType": "address",
          "name": "owner",
          "type": "address"
        },
        {
          "internalType": "address",
          "name": "operator",
          "type": "address"
        }
      ],
      "name": "isApprovedForAll",
      "outputs": [
        {
          "internalType": "bool",
          "name": "",
          "type": "bool"
        }
      ],
      "stateMutability": "view",
      "type": "function"
    },
    {
      "inputs": [],
      "name": "name",
      "outputs": [
        {
          "internalType": "string",
          "name": "",
          "type": "string"
        }
      ],
      "stateMutability": "view",
      "type": "function"
    },
    {
      "inputs": [
        {
          "internalType": "uint256",
          "name": "tokenId",
          "type": "uint256"
        }
      ],
      "name": "ownerOf",
      "outputs": [
        {
          "internalType": "address",
          "name": "",
          "type": "address"
        }
      ],
      "stateMutability": "view",
      "type": "function"
    },
    {
      "inputs": [
        {
          "internalType": "address",
          "name": "from",
          "type": "address"
        },
        {
          "internalType": "address",
          "name": "to",
          "type": "address"
        },
        {
          "internalType": "uint256",
          "name": "tokenId",
          "type": "uint256"
        }
      ],
      "name": "safeTransferFrom",
      "outputs": [],
      "stateMutability": "nonpayable",
      "type": "function"
    },
    {
      "inputs": [
        {
          "internalType": "address",
          "name": "from",
          "type": "address"
        },
        {
          "internalType": "address",
          "name": "to",
          "type": "address"
        },
        {
          "internalType": "uint256",
          "name": "tokenId",
          "type": "uint256"
        },
        {
          "internalType": "bytes",
          "name": "_data",
          "type": "bytes"
        }
      ],
      "name": "safeTransferFrom",
      "outputs": [],
      "stateMutability": "nonpayable",
      "type": "function"
    },
    {
      "inputs": [
        {
          "internalType": "address",
          "name": "operator",
          "type": "address"
        },
        {
          "internalType": "bool",
          "name": "approved",
          "type": "bool"
        }
      ],
      "name": "setApprovalForAll",
      "outputs": [],
      "stateMutability": "nonpayable",
      "type": "function"
    },
    {
      "inputs": [
        {
          "internalType": "bytes4",
          "name": "interfaceId",
          "type": "bytes4"
        }
      ],
      "name": "supportsInterface",
      "outputs": [
        {
          "internalType": "bool",
          "name": "",
          "type": "bool"
        }
      ],
      "stateMutability": "view",
      "type": "function"
    },
    {
      "inputs": [],
      "name": "symbol",
      "outputs": [
        {
          "internalType": "string",
          "name": "",
          "type": "string"
        }
      ],
      "stateMutability": "view",
      "type": "function"
    },
    {
      "inputs": [
        {
          "internalType": "uint256",
          "name": "tokenId",
          "type": "uint256"
        }
      ],
      "name": "tokenURI",
      "outputs": [
        {
          "internalType": "string",
          "name": "",
          "type": "string"
        }
      ],
      "stateMutability": "view",
      "type": "function"
    },
    {
      "inputs": [
        {
          "internalType": "address",
          "name": "from",
          "type": "address"
        },
        {
          "internalType": "address",
          "name": "to",
          "type": "address"
        },
        {
          "internalType": "uint256",
          "name": "tokenId",
          "type": "uint256"
        }
      ],
      "name": "transferFrom",
      "outputs": [],
      "stateMutability": "nonpayable",
      "type": "function"
    }
  ],
  "bytecode": "0x60806040523480156200001157600080fd5b50604080518082018252600b81526a14995b9d18589b1953919560aa1b60208083019182528351808501909452600384526214919560ea1b90840152815191929162000060916000916200007f565b508051620000769060019060208401906200007f565b50505062000162565b8280546200008d9062000125565b90600052602060002090601f016020900481019282620000b15760008555620000fc565b82601f10620000cc57805160ff1916838001178555620000fc565b82800160010185558215620000fc579182015b82811115620000fc578251825591602001919060010190620000df565b506200010a9291506200010e565b5090565b5b808211156200010a57600081556001016200010f565b600181811c908216806200013a57607f821691505b602082108114156200015c57634e487b7160e01b600052602260045260246000fd5b50919050565b6116d180620001726000396000f3fe608060405234801561001057600080fd5b50600436106100ea5760003560e01c80636352211e1161008c578063a22cb46511610066578063a22cb465146101e1578063b88d4fde146101f4578063c87b56dd14610207578063e985e9c51461021a57600080fd5b80636352211e146101b357806370a08231146101c657806395d89b41146101d957600080fd5b8063095ea7b3116100c8578063095ea7b31461015757806323b872dd1461016c57806342842e0e1461017f57806345576f941461019257600080fd5b806301ffc9a7146100ef57806306fdde0314610117578063081812fc1461012c575b600080fd5b6101026100fd366004611383565b610256565b60405190151581526020015b60405180910390f35b61011f6102a8565b60405161010e91906114b1565b61013f61013a366004611401565b61033a565b6040516001600160a01b03909116815260200161010e565b61016a61016536600461135a565b6103c7565b005b61016a61017a36600461126c565b6104dd565b61016a61018d36600461126c565b61050e565b6101a56101a03660046113bb565b610529565b60405190815260200161010e565b61013f6101c1366004611401565b61055a565b6101a56101d4366004611220565b6105d1565b61011f610658565b61016a6101ef366004611320565b610667565b61016a6102023660046112a7565b610676565b61011f610215366004611401565b6106ae565b61010261022836600461123a565b6001600160a01b03918216600090815260056020908152604080832093909416825291909152205460ff1690565b60006001600160e01b031982166380ac58cd60e01b148061028757506001600160e01b03198216635b5e139f60e01b145b806102a257506301ffc9a760e01b6001600160e01b03198316145b92915050565b6060600080546102b7906115d6565b80601f01602080910402602001604051908101604052809291908181526020018280546102e3906115d6565b80156103305780601f1061030557610100808354040283529160200191610330565b820191906000526020600020905b81548152906001019060200180831161031357829003601f168201915b5050505050905090565b600061034582610825565b6103ab5760405162461bcd60e51b815260206004820152602c60248201527f4552433732313a20617070726f76656420717565727920666f72206e6f6e657860448201526b34b9ba32b73a103a37b5b2b760a11b60648201526084015b60405180910390fd5b506000908152600460205260409020546001600160a01b031690565b60006103d28261055a565b9050806001600160a01b0316836001600160a01b031614156104405760405162461bcd60e51b815260206004820152602160248201527f4552433732313a20617070726f76616c20746f2063757272656e74206f776e656044820152603960f91b60648201526084016103a2565b336001600160a01b038216148061045c575061045c8133610228565b6104ce5760405162461bcd60e51b815260206004820152603860248201527f4552433732313a20617070726f76652063616c6c6572206973206e6f74206f7760448201527f6e6572206e6f7220617070726f76656420666f7220616c6c000000000000000060648201526084016103a2565b6104d88383610842565b505050565b6104e733826108b0565b6105035760405162461bcd60e51b81526004016103a290611516565b6104d8838383610996565b6104d883838360405180602001604052806000815250610676565b6000610539600780546001019055565b600061054460075490565b90506105503382610b36565b6102a28184610c69565b6000818152600260205260408120546001600160a01b0316806102a25760405162461bcd60e51b815260206004820152602960248201527f4552433732313a206f776e657220717565727920666f72206e6f6e657869737460448201526832b73a103a37b5b2b760b91b60648201526084016103a2565b60006001600160a01b03821661063c5760405162461bcd60e51b815260206004820152602a60248201527f4552433732313a2062616c616e636520717565727920666f7220746865207a65604482015269726f206164647265737360b01b60648201526084016103a2565b506001600160a01b031660009081526003602052604090205490565b6060600180546102b7906115d6565b610672338383610cf4565b5050565b61068033836108b0565b61069c5760405162461bcd60e51b81526004016103a290611516565b6106a884848484610dc3565b50505050565b60606106b982610825565b61071f5760405162461bcd60e51b815260206004820152603160248201527f45524337323155524953746f726167653a2055524920717565727920666f72206044820152703737b732bc34b9ba32b73a103a37b5b2b760791b60648201526084016103a2565b60008281526006602052604081208054610738906115d6565b80601f0160208091040260200160405190810160405280929190818152602001828054610764906115d6565b80156107b15780601f10610786576101008083540402835291602001916107b1565b820191906000526020600020905b81548152906001019060200180831161079457829003601f168201915b5050505050905060006107cf60408051602081019091526000815290565b90508051600014156107e2575092915050565b8151156108145780826040516020016107fc929190611445565b60405160208183030381529060405292505050919050565b61081d84610df6565b949350505050565b6000908152600260205260409020546001600160a01b0316151590565b600081815260046020526040902080546001600160a01b0319166001600160a01b03841690811790915581906108778261055a565b6001600160a01b03167f8c5be1e5ebec7d5bd14f71427d1e84f3dd0314c0f7b2291e5b200ac8c7c3b92560405160405180910390a45050565b60006108bb82610825565b61091c5760405162461bcd60e51b815260206004820152602c60248201527f4552433732313a206f70657261746f7220717565727920666f72206e6f6e657860448201526b34b9ba32b73a103a37b5b2b760a11b60648201526084016103a2565b60006109278361055a565b9050806001600160a01b0316846001600160a01b031614806109625750836001600160a01b03166109578461033a565b6001600160a01b0316145b8061081d57506001600160a01b0380821660009081526005602090815260408083209388168352929052205460ff1661081d565b826001600160a01b03166109a98261055a565b6001600160a01b031614610a115760405162461bcd60e51b815260206004820152602960248201527f4552433732313a207472616e73666572206f6620746f6b656e2074686174206960448201526839903737ba1037bbb760b91b60648201526084016103a2565b6001600160a01b038216610a735760405162461bcd60e51b8152602060048201526024808201527f4552433732313a207472616e7366657220746f20746865207a65726f206164646044820152637265737360e01b60648201526084016103a2565b610a7e600082610842565b6001600160a01b0383166000908152600360205260408120805460019290610aa7908490611593565b90915550506001600160a01b0382166000908152600360205260408120805460019290610ad5908490611567565b909155505060008181526002602052604080822080546001600160a01b0319166001600160a01b0386811691821790925591518493918716917fddf252ad1be2c89b69c2b068fc378daa952ba7f163c4a11628f55a4df523b3ef91a4505050565b6001600160a01b038216610b8c5760405162461bcd60e51b815260206004820181905260248201527f4552433732313a206d696e7420746f20746865207a65726f206164647265737360448201526064016103a2565b610b9581610825565b15610be25760405162461bcd60e51b815260206004820152601c60248201527f4552433732313a20746f6b656e20616c7265616479206d696e7465640000000060448201526064016103a2565b6001600160a01b0382166000908152600360205260408120805460019290610c0b908490611567565b909155505060008181526002602052604080822080546001600160a01b0319166001600160a01b03861690811790915590518392907fddf252ad1be2c89b69c2b068fc378daa952ba7f163c4a11628f55a4df523b3ef908290a45050565b610c7282610825565b610cd55760405162461bcd60e51b815260206004820152602e60248201527f45524337323155524953746f726167653a2055524920736574206f66206e6f6e60448201526d32bc34b9ba32b73a103a37b5b2b760911b60648201526084016103a2565b600082815260066020908152604090912082516104d8928401906110f5565b816001600160a01b0316836001600160a01b03161415610d565760405162461bcd60e51b815260206004820152601960248201527f4552433732313a20617070726f766520746f2063616c6c65720000000000000060448201526064016103a2565b6001600160a01b03838116600081815260056020908152604080832094871680845294825291829020805460ff191686151590811790915591519182527f17307eab39ab6107e8899845ad3d59bd9653f200f220920489ca2b5937696c31910160405180910390a3505050565b610dce848484610996565b610dda84848484610ece565b6106a85760405162461bcd60e51b81526004016103a2906114c4565b6060610e0182610825565b610e655760405162461bcd60e51b815260206004820152602f60248201527f4552433732314d657461646174613a2055524920717565727920666f72206e6f60448201526e3732bc34b9ba32b73a103a37b5b2b760891b60648201526084016103a2565b6000610e7c60408051602081019091526000815290565b90506000815111610e9c5760405180602001604052806000815250610ec7565b80610ea684610fdb565b604051602001610eb7929190611445565b6040516020818303038152906040525b9392505050565b60006001600160a01b0384163b15610fd057604051630a85bd0160e11b81526001600160a01b0385169063150b7a0290610f12903390899088908890600401611474565b602060405180830381600087803b158015610f2c57600080fd5b505af1925050508015610f5c575060408051601f3d908101601f19168201909252610f599181019061139f565b60015b610fb6573d808015610f8a576040519150601f19603f3d011682016040523d82523d6000602084013e610f8f565b606091505b508051610fae5760405162461bcd60e51b81526004016103a2906114c4565b805181602001fd5b6001600160e01b031916630a85bd0160e11b14905061081d565b506001949350505050565b606081610fff5750506040805180820190915260018152600360fc1b602082015290565b8160005b8115611029578061101381611611565b91506110229050600a8361157f565b9150611003565b60008167ffffffffffffffff81111561105257634e487b7160e01b600052604160045260246000fd5b6040519080825280601f01601f19166020018201604052801561107c576020820181803683370190505b5090505b841561081d57611091600183611593565b915061109e600a8661162c565b6110a9906030611567565b60f81b8183815181106110cc57634e487b7160e01b600052603260045260246000fd5b60200101906001600160f81b031916908160001a9053506110ee600a8661157f565b9450611080565b828054611101906115d6565b90600052602060002090601f0160209004810192826111235760008555611169565b82601f1061113c57805160ff1916838001178555611169565b82800160010185558215611169579182015b8281111561116957825182559160200191906001019061114e565b50611175929150611179565b5090565b5b80821115611175576000815560010161117a565b600067ffffffffffffffff808411156111a9576111a961166c565b604051601f8501601f19908116603f011681019082821181831017156111d1576111d161166c565b816040528093508581528686860111156111ea57600080fd5b858560208301376000602087830101525050509392505050565b80356001600160a01b038116811461121b57600080fd5b919050565b600060208284031215611231578081fd5b610ec782611204565b6000806040838503121561124c578081fd5b61125583611204565b915061126360208401611204565b90509250929050565b600080600060608486031215611280578081fd5b61128984611204565b925061129760208501611204565b9150604084013590509250925092565b600080600080608085870312156112bc578081fd5b6112c585611204565b93506112d360208601611204565b925060408501359150606085013567ffffffffffffffff8111156112f5578182fd5b8501601f81018713611305578182fd5b6113148782356020840161118e565b91505092959194509250565b60008060408385031215611332578182fd5b61133b83611204565b91506020830135801515811461134f578182fd5b809150509250929050565b6000806040838503121561136c578182fd5b61137583611204565b946020939093013593505050565b600060208284031215611394578081fd5b8135610ec781611682565b6000602082840312156113b0578081fd5b8151610ec781611682565b6000602082840312156113cc578081fd5b813567ffffffffffffffff8111156113e2578182fd5b8201601f810184136113f2578182fd5b61081d8482356020840161118e565b600060208284031215611412578081fd5b5035919050565b600081518084526114318160208601602086016115aa565b601f01601f19169290920160200192915050565b600083516114578184602088016115aa565b83519083019061146b8183602088016115aa565b01949350505050565b6001600160a01b03858116825284166020820152604081018390526080606082018190526000906114a790830184611419565b9695505050505050565b602081526000610ec76020830184611419565b60208082526032908201527f4552433732313a207472616e7366657220746f206e6f6e20455243373231526560408201527131b2b4bb32b91034b6b83632b6b2b73a32b960711b606082015260800190565b60208082526031908201527f4552433732313a207472616e736665722063616c6c6572206973206e6f74206f6040820152701ddb995c881b9bdc88185c1c1c9bdd9959607a1b606082015260800190565b6000821982111561157a5761157a611640565b500190565b60008261158e5761158e611656565b500490565b6000828210156115a5576115a5611640565b500390565b60005b838110156115c55781810151838201526020016115ad565b838111156106a85750506000910152565b600181811c908216806115ea57607f821691505b6020821081141561160b57634e487b7160e01b600052602260045260246000fd5b50919050565b600060001982141561162557611625611640565b5060010190565b60008261163b5761163b611656565b500690565b634e487b7160e01b600052601160045260246000fd5b634e487b7160e01b600052601260045260246000fd5b634e487b7160e01b600052604160045260246000fd5b6001600160e01b03198116811461169857600080fd5b5056fea26469706673582212208b81baed78d00c2a922ada05c58442cbb929b36ec146299a984760c229e71d5e64736f6c63430008040033",
  "linkReferences": {},
  "deployedLinkReferences": {}
}