{
  "_format": "hh-sol-artifact-1",
  "contractName": "RentalMarket",
  "sourceName": "contracts/RentalMarket.sol",
  "abi": [
    {
      "inputs": [],
      "stateMutability": "nonpayable",
      "type": "constructor"
    },
    {
      "anonymous": false,
      "inputs": [
        {
          "indexed": true,
          "internalType": "uint256",
          "name": "itemId",
          "type": "uint256"
        },
        {
          "indexed": false,
          "internalType": "bool",
          "name": "isActive",
          "type": "bool"
        },
        {
          "indexed": true,
          "internalType": "address",
          "name": "NFTContract",
          "type": "address"
        },
        {
          "indexed": true,
          "internalType": "uint256",
          "name": "tokenId",
          "type": "uint256"
        },
        {
          "indexed": false,
          "internalType": "address",
          "name": "seller",
          "type": "address"
        },
        {
          "indexed": false,
          "internalType": "address",
          "name": "renter",
          "type": "address"
        },
        {
          "indexed": false,
          "internalType": "uint256",
          "name": "rental_price",
          "type": "uint256"
        },
        {
          "indexed": false,
          "internalType": "uint256",
          "name": "collateral_price",
          "type": "uint256"
        },
        {
          "indexed": false,
          "internalType": "uint256",
          "name": "expiresAt",
          "type": "uint256"
        }
      ],
      "name": "MarketItemCreated",
      "type": "event"
    },
    {
      "inputs": [
        {
          "internalType": "address",
          "name": "nftContract",
          "type": "address"
        },
        {
          "internalType": "uint256",
          "name": "tokenId",
          "type": "uint256"
        },
        {
          "internalType": "uint256",
          "name": "rental_price",
          "type": "uint256"
        },
        {
          "internalType": "uint256",
          "name": "collateral_price",
          "type": "uint256"
        },
        {
          "internalType": "uint256",
          "name": "expiresAt",
          "type": "uint256"
        }
      ],
      "name": "createMarketItem",
      "outputs": [],
      "stateMutability": "payable",
      "type": "function"
    },
    {
      "inputs": [],
      "name": "fetchItemsClaimable",
      "outputs": [
        {
          "components": [
            {
              "internalType": "uint256",
              "name": "itemId",
              "type": "uint256"
            },
            {
              "internalType": "bool",
              "name": "isActive",
              "type": "bool"
            },
            {
              "internalType": "address",
              "name": "NFTContract",
              "type": "address"
            },
            {
              "internalType": "uint256",
              "name": "tokenId",
              "type": "uint256"
            },
            {
              "internalType": "address payable",
              "name": "seller",
              "type": "address"
            },
            {
              "internalType": "address payable",
              "name": "renter",
              "type": "address"
            },
            {
              "internalType": "uint256",
              "name": "rental_price",
              "type": "uint256"
            },
            {
              "internalType": "uint256",
              "name": "collateral_price",
              "type": "uint256"
            },
            {
              "internalType": "uint256",
              "name": "expiresAt",
              "type": "uint256"
            }
          ],
          "internalType": "struct RentalMarket.MarketItem[]",
          "name": "",
          "type": "tuple[]"
        }
      ],
      "stateMutability": "view",
      "type": "function"
    },
    {
      "inputs": [],
      "name": "fetchMarketItems",
      "outputs": [
        {
          "components": [
            {
              "internalType": "uint256",
              "name": "itemId",
              "type": "uint256"
            },
            {
              "internalType": "bool",
              "name": "isActive",
              "type": "bool"
            },
            {
              "internalType": "address",
              "name": "NFTContract",
              "type": "address"
            },
            {
              "internalType": "uint256",
              "name": "tokenId",
              "type": "uint256"
            },
            {
              "internalType": "address payable",
              "name": "seller",
              "type": "address"
            },
            {
              "internalType": "address payable",
              "name": "renter",
              "type": "address"
            },
            {
              "internalType": "uint256",
              "name": "rental_price",
              "type": "uint256"
            },
            {
              "internalType": "uint256",
              "name": "collateral_price",
              "type": "uint256"
            },
            {
              "internalType": "uint256",
              "name": "expiresAt",
              "type": "uint256"
            }
          ],
          "internalType": "struct RentalMarket.MarketItem[]",
          "name": "",
          "type": "tuple[]"
        }
      ],
      "stateMutability": "view",
      "type": "function"
    },
    {
      "inputs": [],
      "name": "fetchMyNFTs",
      "outputs": [
        {
          "components": [
            {
              "internalType": "uint256",
              "name": "itemId",
              "type": "uint256"
            },
            {
              "internalType": "bool",
              "name": "isActive",
              "type": "bool"
            },
            {
              "internalType": "address",
              "name": "NFTContract",
              "type": "address"
            },
            {
              "internalType": "uint256",
              "name": "tokenId",
              "type": "uint256"
            },
            {
              "internalType": "address payable",
              "name": "seller",
              "type": "address"
            },
            {
              "internalType": "address payable",
              "name": "renter",
              "type": "address"
            },
            {
              "internalType": "uint256",
              "name": "rental_price",
              "type": "uint256"
            },
            {
              "internalType": "uint256",
              "name": "collateral_price",
              "type": "uint256"
            },
            {
              "internalType": "uint256",
              "name": "expiresAt",
              "type": "uint256"
            }
          ],
          "internalType": "struct RentalMarket.MarketItem[]",
          "name": "",
          "type": "tuple[]"
        }
      ],
      "stateMutability": "view",
      "type": "function"
    },
    {
      "inputs": [],
      "name": "fetchRentedNFTs",
      "outputs": [
        {
          "components": [
            {
              "internalType": "uint256",
              "name": "itemId",
              "type": "uint256"
            },
            {
              "internalType": "bool",
              "name": "isActive",
              "type": "bool"
            },
            {
              "internalType": "address",
              "name": "NFTContract",
              "type": "address"
            },
            {
              "internalType": "uint256",
              "name": "tokenId",
              "type": "uint256"
            },
            {
              "internalType": "address payable",
              "name": "seller",
              "type": "address"
            },
            {
              "internalType": "address payable",
              "name": "renter",
              "type": "address"
            },
            {
              "internalType": "uint256",
              "name": "rental_price",
              "type": "uint256"
            },
            {
              "internalType": "uint256",
              "name": "collateral_price",
              "type": "uint256"
            },
            {
              "internalType": "uint256",
              "name": "expiresAt",
              "type": "uint256"
            }
          ],
          "internalType": "struct RentalMarket.MarketItem[]",
          "name": "",
          "type": "tuple[]"
        }
      ],
      "stateMutability": "view",
      "type": "function"
    },
    {
      "inputs": [
        {
          "internalType": "uint256",
          "name": "itemId",
          "type": "uint256"
        }
      ],
      "name": "finishRenting",
      "outputs": [],
      "stateMutability": "nonpayable",
      "type": "function"
    },
    {
      "inputs": [],
      "name": "getListingPrice",
      "outputs": [
        {
          "internalType": "uint256",
          "name": "",
          "type": "uint256"
        }
      ],
      "stateMutability": "view",
      "type": "function"
    },
    {
      "inputs": [
        {
          "internalType": "uint256",
          "name": "itemId",
          "type": "uint256"
        }
      ],
      "name": "rentMarketItem",
      "outputs": [],
      "stateMutability": "payable",
      "type": "function"
    },
    {
      "inputs": [
        {
          "internalType": "uint256",
          "name": "_listingPrice",
          "type": "uint256"
        }
      ],
      "name": "setListingPrice",
      "outputs": [],
      "stateMutability": "nonpayable",
      "type": "function"
    }
  ],
  "bytecode": "0x60806040526658d15e1762800060055534801561001b57600080fd5b506001600055600480546001600160a01b03191633179055611861806100426000396000f3fe6080604052600436106100865760003560e01c80634de48be8116100595780634de48be8146100fe57806369bac17e146101135780637c726b691461012857806392083b9114610148578063b8bb6d6e1461015b57600080fd5b80630f08efe01461008b57806312e85585146100b6578063202e3740146100d45780633107e5bb146100e9575b600080fd5b34801561009757600080fd5b506100a061017b565b6040516100ad919061162f565b60405180910390f35b3480156100c257600080fd5b506005546040519081526020016100ad565b3480156100e057600080fd5b506100a0610462565b6100fc6100f73660046115cc565b61065e565b005b34801561010a57600080fd5b506100a0610961565b34801561011f57600080fd5b506100a0610b5d565b34801561013457600080fd5b506100fc6101433660046115cc565b610dcb565b6100fc610156366004611589565b610e36565b34801561016757600080fd5b506100fc6101763660046115cc565b611191565b6060600061018860015490565b9050600061019560025490565b6001546101a291906117cb565b90506000808267ffffffffffffffff8111156101ce57634e487b7160e01b600052604160045260246000fd5b60405190808252806020026020018201604052801561020757816020015b6101f46114fd565b8152602001906001900390816101ec5790505b5090506102396040518060400160405280600c81526020016b41646472657373205a65726f60a01b8152506000611452565b60005b8481101561045957604080518082019091526007815266125d195b48125160ca1b602082015261028c90600660006102758560016117b3565b81526020019081526020016000206000015461149b565b60408051808201909152600b81526a24ba32b6902932b73a32b960a91b60208201526102e390600660006102c18560016117b3565b81526020810191909152604001600020600401546001600160a01b0316611452565b600660006102f28360016117b3565b81526020810191909152604001600020541580159061033b5750600060068161031c8460016117b3565b81526020810191909152604001600020600401546001600160a01b0316145b1561044757600061034d8260016117b3565b905061037f6040518060400160405280600e81526020016d125d195b4813db8813585c9ad95d60921b8152508361149b565b60008181526006602081815260409283902083516101208101855281548152600182015460ff81161515938201939093526001600160a01b036101009384900481169582019590955260028201546060820152600382015485166080820152600482015490941660a0850152600581015460c08501529182015460e0840152600782015490830152845190919085908790811061042c57634e487b7160e01b600052603260045260246000fd5b60209081029190910101526104426001866117b3565b945050505b80610451816117e2565b91505061023c565b50949350505050565b6060600061046f60015490565b905060008060005b838110156104d257336006600061048f8460016117b3565b81526020810191909152604001600020600301546001600160a01b031614156104c0576104bd6001846117b3565b92505b806104ca816117e2565b915050610477565b5060008267ffffffffffffffff8111156104fc57634e487b7160e01b600052604160045260246000fd5b60405190808252806020026020018201604052801561053557816020015b6105226114fd565b81526020019060019003908161051a5790505b50905060005b848110156104595733600660006105538460016117b3565b81526020810191909152604001600020600301546001600160a01b0316141561064c5760006105838260016117b3565b60008181526006602081815260409283902083516101208101855281548152600182015460ff81161515938201939093526001600160a01b036101009384900481169582019590955260028201546060820152600382015485166080820152600482015490941660a0850152600581015460c08501529182015460e084015260078201549083015285519293509185908790811061063157634e487b7160e01b600052603260045260246000fd5b60209081029190910101526106476001866117b3565b945050505b80610656816117e2565b91505061053b565b6002600054141561068a5760405162461bcd60e51b81526004016106819061177c565b60405180910390fd5b60026000818155828152600660208190526040909120600581015491810154928101549092906106ba82846117b3565b3414610730576040805162461bcd60e51b81526020600482015260248101919091527f506c65617365207375626d6974207468652061736b696e67207072696365206960448201527f6e206f7264657220746f20636f6d706c657465207468652070757263686173656064820152608401610681565b60018401546040516331a9108f60e11b815260048101839052309161010090046001600160a01b031690636352211e9060240160206040518083038186803b15801561077b57600080fd5b505afa15801561078f573d6000803e3d6000fd5b505050506040513d601f19601f820116820180604052508101906107b39190611566565b6001600160a01b0316146108155760405162461bcd60e51b8152602060048201526024808201527f5468697320546f6b656e204973204e6f7420417661696c61626c6520466f722060448201526314995b9d60e21b6064820152608401610681565b60038401546040516001600160a01b039091169084156108fc029085906000818181858888f19350505050158015610851573d6000803e3d6000fd5b50604051309083156108fc029084906000818181858888f1935050505015801561087f573d6000803e3d6000fd5b5060008581526006602052604090206007015461089d9042906117b3565b600086815260066020526040902060078101919091556004810180546001600160a01b031916331790556001908101805460ff191690911790556108e5600280546001019055565b60018401546040516323b872dd60e01b8152306004820152336024820152604481018390526101009091046001600160a01b0316906323b872dd90606401600060405180830381600087803b15801561093d57600080fd5b505af1158015610951573d6000803e3d6000fd5b5050600160005550505050505050565b6060600061096e60015490565b905060008060005b838110156109d157336006600061098e8460016117b3565b81526020810191909152604001600020600401546001600160a01b031614156109bf576109bc6001846117b3565b92505b806109c9816117e2565b915050610976565b5060008267ffffffffffffffff8111156109fb57634e487b7160e01b600052604160045260246000fd5b604051908082528060200260200182016040528015610a3457816020015b610a216114fd565b815260200190600190039081610a195790505b50905060005b84811015610459573360066000610a528460016117b3565b81526020810191909152604001600020600401546001600160a01b03161415610b4b576000610a828260016117b3565b60008181526006602081815260409283902083516101208101855281548152600182015460ff81161515938201939093526001600160a01b036101009384900481169582019590955260028201546060820152600382015485166080820152600482015490941660a0850152600581015460c08501529182015460e0840152600782015490830152855192935091859087908110610b3057634e487b7160e01b600052603260045260246000fd5b6020908102919091010152610b466001866117b3565b945050505b80610b55816117e2565b915050610a3a565b60606000610b6a60015490565b9050600080610b996040518060400160405280600881526020016754696d65204e6f7760c01b8152504261149b565b60005b83811015610c1b5760066000610bb38360016117b3565b815260208101919091526040016000206001015460ff168015610bf657504260066000610be18460016117b3565b81526020019081526020016000206007015411155b15610c0957610c066001846117b3565b92505b80610c13816117e2565b915050610b9c565b5060008267ffffffffffffffff811115610c4557634e487b7160e01b600052604160045260246000fd5b604051908082528060200260200182016040528015610c7e57816020015b610c6b6114fd565b815260200190600190039081610c635790505b50905060005b848110156104595760066000610c9b8360016117b3565b815260208101919091526040016000206001015460ff168015610cde57504260066000610cc98460016117b3565b81526020019081526020016000206007015411155b15610db9576000610cf08260016117b3565b60008181526006602081815260409283902083516101208101855281548152600182015460ff81161515938201939093526001600160a01b036101009384900481169582019590955260028201546060820152600382015485166080820152600482015490941660a0850152600581015460c08501529182015460e0840152600782015490830152855192935091859087908110610d9e57634e487b7160e01b600052603260045260246000fd5b6020908102919091010152610db46001866117b3565b945050505b80610dc3816117e2565b915050610c84565b6004546001600160a01b03163314610e315760405162461bcd60e51b815260206004820152602360248201527f4f6e6c79204f776e65722043616e2041636365737320546869732046756e637460448201526234b7b760e91b6064820152608401610681565b600555565b60026000541415610e595760405162461bcd60e51b81526004016106819061177c565b600260005582610e7b5760405162461bcd60e51b815260040161068190611739565b60008211610e9b5760405162461bcd60e51b815260040161068190611739565b6005543414610ef85760405162461bcd60e51b8152602060048201526024808201527f5072696365206d75737420626520657175616c20746f206c697374696e6720706044820152637269636560e01b6064820152608401610681565b610f06600180546001019055565b6000610f1160015490565b9050604051806101200160405280828152602001600015158152602001876001600160a01b03168152602001868152602001336001600160a01b0316815260200160006001600160a01b0316815260200185815260200184815260200183815250600660008381526020019081526020016000206000820151816000015560208201518160010160006101000a81548160ff02191690831515021790555060408201518160010160016101000a8154816001600160a01b0302191690836001600160a01b031602179055506060820151816002015560808201518160030160006101000a8154816001600160a01b0302191690836001600160a01b0316021790555060a08201518160040160006101000a8154816001600160a01b0302191690836001600160a01b0316021790555060c0820151816005015560e082015181600601556101008201518160070155905050856001600160a01b03166323b872dd3330886040518463ffffffff1660e01b81526004016110b1939291906001600160a01b039384168152919092166020820152604081019190915260600190565b600060405180830381600087803b1580156110cb57600080fd5b505af11580156110df573d6000803e3d6000fd5b50506004546005546040516001600160a01b03909216935080156108fc029250906000818181858888f1935050505015801561111f573d6000803e3d6000fd5b5060408051600080825233602083015281830152606081018690526080810185905260a08101849052905186916001600160a01b0389169184917f92c60316cdb566cc45367fce94b8a51545e7273fce9c797b51ed6ae12eb34178919081900360c00190a45050600160005550505050565b600260005414156111b45760405162461bcd60e51b81526004016106819061177c565b6002600090815581815260066020526040902060048101546001600160a01b0316331480156111e7575080600701544211155b61123f5760405162461bcd60e51b815260206004820152602360248201527f52656e7461626c654e46543a20796f7520617265206e6f74207468652072656e6044820152623a32b960e91b6064820152608401610681565b600181015460ff166112885760405162461bcd60e51b8152602060048201526012602482015271139195081a5cc81b9bdd081bdb881c995b9d60721b6044820152606401610681565b60018101805460ff19169081905560028201546040516323b872dd60e01b815233600482015230602482015260448101919091526101009091046001600160a01b0316906323b872dd90606401600060405180830381600087803b1580156112ef57600080fd5b505af1158015611303573d6000803e3d6000fd5b505050600482015460068301546040516001600160a01b03909216925080156108fc02916000818181858888f19350505050158015611346573d6000803e3d6000fd5b5060408051808201909152601f81527f52656e74657220416464726573732046726f6d20436f6e74726163742d3e20006020820152600482015461139391906001600160a01b0316611452565b60408051808201909152601f81527f53656c6c657220416464726573732046726f6d20436f6e74726163742d3e2000602082015260038201546113df91906001600160a01b0316611452565b6113ed600380546001019055565b5060009081526006602081905260408220828155600180820180546001600160a81b0319169055600282018490556003820180546001600160a01b03199081169091556004830180549091169055600582018490559181018390556007018290559055565b61149782826040516024016114689291906116ed565b60408051601f198184030181529190526020810180516001600160e01b031663319af33360e01b1790526114dc565b5050565b61149782826040516024016114b1929190611717565b60408051601f198184030181529190526020810180516001600160e01b03166309710a9d60e41b1790525b80516a636f6e736f6c652e6c6f67602083016000808483855afa5050505050565b6040518061012001604052806000815260200160001515815260200160006001600160a01b031681526020016000815260200160006001600160a01b0316815260200160006001600160a01b031681526020016000815260200160008152602001600081525090565b600060208284031215611577578081fd5b815161158281611813565b9392505050565b600080600080600060a086880312156115a0578081fd5b85356115ab81611813565b97602087013597506040870135966060810135965060800135945092505050565b6000602082840312156115dd578081fd5b5035919050565b60008151808452815b81811015611609576020818501810151868301820152016115ed565b8181111561161a5782602083870101525b50601f01601f19169290920160200192915050565b602080825282518282018190526000919060409081850190868401855b828110156116e05781518051855286810151151587860152858101516001600160a01b03168686015260608082015190860152608080820151611699828801826001600160a01b03169052565b505060a0818101516001600160a01b03169086015260c0808201519086015260e080820151908601526101009081015190850152610120909301929085019060010161164c565b5091979650505050505050565b60408152600061170060408301856115e4565b905060018060a01b03831660208301529392505050565b60408152600061172a60408301856115e4565b90508260208301529392505050565b60208082526023908201527f52656e74616c205072696365206d757374206265206174206c6561737420312060408201526277656960e81b606082015260800190565b6020808252601f908201527f5265656e7472616e637947756172643a207265656e7472616e742063616c6c00604082015260600190565b600082198211156117c6576117c66117fd565b500190565b6000828210156117dd576117dd6117fd565b500390565b60006000198214156117f6576117f66117fd565b5060010190565b634e487b7160e01b600052601160045260246000fd5b6001600160a01b038116811461182857600080fd5b5056fea2646970667358221220233fee832d069cb5be5479ecac25f6a39acb1e0f695a3c625ef8bc6d3202255064736f6c63430008040033",
  "linkReferences": {},
  "deployedLinkReferences": {}
}